{
	"data": {
		"bytecode": {
			"linkReferences": {},
			"object": "6080604052348015600e575f80fd5b5061039f8061001c5f395ff3fe608060405260043610610034575f3560e01c80636f9fb98a1461003d578063a26e11861461005c578063e088747b1461006f57005b3661003b57005b005b348015610048575f80fd5b504760405190815260200160405180910390f35b61003b61006a366004610293565b61008e565b34801561007a575f80fd5b5061003b6100893660046102cd565b610128565b5f34116100e25760405162461bcd60e51b815260206004820152601860248201527f596f75206d7573742073656e6420736f6d65204574686572000000000000000060448201526064015b60405180910390fd5b336001600160a01b03167f643e927b32d5bfd08eccd2fcbd97057ad413850f857a2359639114e8e8dd3d7b348360405161011d92919061032d565b60405180910390a250565b814710156101785760405162461bcd60e51b815260206004820152601d60248201527f496e73756666696369656e7420636f6e74726163742062616c616e636500000060448201526064016100d9565b6040516001600160a01b0384169083156108fc029084905f818181858888f193505050501580156101ab573d5f803e3d5ffd5b50336001600160a01b03167fecb269d89bfded20a4f5e6e51b509df1e3309a995946c9be8d6a8e2ddfa6b89c83836040516101e792919061032d565b60405180910390a2505050565b634e487b7160e01b5f52604160045260245ffd5b5f82601f830112610217575f80fd5b813567ffffffffffffffff811115610231576102316101f4565b604051601f8201601f19908116603f0116810167ffffffffffffffff81118282101715610260576102606101f4565b604052818152838201602001851015610277575f80fd5b816020850160208301375f918101602001919091529392505050565b5f602082840312156102a3575f80fd5b813567ffffffffffffffff8111156102b9575f80fd5b6102c584828501610208565b949350505050565b5f805f606084860312156102df575f80fd5b83356001600160a01b03811681146102f5575f80fd5b925060208401359150604084013567ffffffffffffffff811115610317575f80fd5b61032386828701610208565b9150509250925092565b828152604060208201525f82518060408401528060208501606085015e5f606082850101526060601f19601f830116840101915050939250505056fea26469706673582212201fbc3d55d8baf6dbac7f3d33ee8ca787dba5fa33c97c8448a546d968f7433a6f64736f6c634300081a0033",
			"opcodes": "PUSH1 0x80 PUSH1 0x40 MSTORE CALLVALUE DUP1 ISZERO PUSH1 0xE JUMPI PUSH0 DUP1 REVERT JUMPDEST POP PUSH2 0x39F DUP1 PUSH2 0x1C PUSH0 CODECOPY PUSH0 RETURN INVALID PUSH1 0x80 PUSH1 0x40 MSTORE PUSH1 0x4 CALLDATASIZE LT PUSH2 0x34 JUMPI PUSH0 CALLDATALOAD PUSH1 0xE0 SHR DUP1 PUSH4 0x6F9FB98A EQ PUSH2 0x3D JUMPI DUP1 PUSH4 0xA26E1186 EQ PUSH2 0x5C JUMPI DUP1 PUSH4 0xE088747B EQ PUSH2 0x6F JUMPI STOP JUMPDEST CALLDATASIZE PUSH2 0x3B JUMPI STOP JUMPDEST STOP JUMPDEST CALLVALUE DUP1 ISZERO PUSH2 0x48 JUMPI PUSH0 DUP1 REVERT JUMPDEST POP SELFBALANCE PUSH1 0x40 MLOAD SWAP1 DUP2 MSTORE PUSH1 0x20 ADD PUSH1 0x40 MLOAD DUP1 SWAP2 SUB SWAP1 RETURN JUMPDEST PUSH2 0x3B PUSH2 0x6A CALLDATASIZE PUSH1 0x4 PUSH2 0x293 JUMP JUMPDEST PUSH2 0x8E JUMP JUMPDEST CALLVALUE DUP1 ISZERO PUSH2 0x7A JUMPI PUSH0 DUP1 REVERT JUMPDEST POP PUSH2 0x3B PUSH2 0x89 CALLDATASIZE PUSH1 0x4 PUSH2 0x2CD JUMP JUMPDEST PUSH2 0x128 JUMP JUMPDEST PUSH0 CALLVALUE GT PUSH2 0xE2 JUMPI PUSH1 0x40 MLOAD PUSH3 0x461BCD PUSH1 0xE5 SHL DUP2 MSTORE PUSH1 0x20 PUSH1 0x4 DUP3 ADD MSTORE PUSH1 0x18 PUSH1 0x24 DUP3 ADD MSTORE PUSH32 0x596F75206D7573742073656E6420736F6D652045746865720000000000000000 PUSH1 0x44 DUP3 ADD MSTORE PUSH1 0x64 ADD JUMPDEST PUSH1 0x40 MLOAD DUP1 SWAP2 SUB SWAP1 REVERT JUMPDEST CALLER PUSH1 0x1 PUSH1 0x1 PUSH1 0xA0 SHL SUB AND PUSH32 0x643E927B32D5BFD08ECCD2FCBD97057AD413850F857A2359639114E8E8DD3D7B CALLVALUE DUP4 PUSH1 0x40 MLOAD PUSH2 0x11D SWAP3 SWAP2 SWAP1 PUSH2 0x32D JUMP JUMPDEST PUSH1 0x40 MLOAD DUP1 SWAP2 SUB SWAP1 LOG2 POP JUMP JUMPDEST DUP2 SELFBALANCE LT ISZERO PUSH2 0x178 JUMPI PUSH1 0x40 MLOAD PUSH3 0x461BCD PUSH1 0xE5 SHL DUP2 MSTORE PUSH1 0x20 PUSH1 0x4 DUP3 ADD MSTORE PUSH1 0x1D PUSH1 0x24 DUP3 ADD MSTORE PUSH32 0x496E73756666696369656E7420636F6E74726163742062616C616E6365000000 PUSH1 0x44 DUP3 ADD MSTORE PUSH1 0x64 ADD PUSH2 0xD9 JUMP JUMPDEST PUSH1 0x40 MLOAD PUSH1 0x1 PUSH1 0x1 PUSH1 0xA0 SHL SUB DUP5 AND SWAP1 DUP4 ISZERO PUSH2 0x8FC MUL SWAP1 DUP5 SWAP1 PUSH0 DUP2 DUP2 DUP2 DUP6 DUP9 DUP9 CALL SWAP4 POP POP POP POP ISZERO DUP1 ISZERO PUSH2 0x1AB JUMPI RETURNDATASIZE PUSH0 DUP1 RETURNDATACOPY RETURNDATASIZE PUSH0 REVERT JUMPDEST POP CALLER PUSH1 0x1 PUSH1 0x1 PUSH1 0xA0 SHL SUB AND PUSH32 0xECB269D89BFDED20A4F5E6E51B509DF1E3309A995946C9BE8D6A8E2DDFA6B89C DUP4 DUP4 PUSH1 0x40 MLOAD PUSH2 0x1E7 SWAP3 SWAP2 SWAP1 PUSH2 0x32D JUMP JUMPDEST PUSH1 0x40 MLOAD DUP1 SWAP2 SUB SWAP1 LOG2 POP POP POP JUMP JUMPDEST PUSH4 0x4E487B71 PUSH1 0xE0 SHL PUSH0 MSTORE PUSH1 0x41 PUSH1 0x4 MSTORE PUSH1 0x24 PUSH0 REVERT JUMPDEST PUSH0 DUP3 PUSH1 0x1F DUP4 ADD SLT PUSH2 0x217 JUMPI PUSH0 DUP1 REVERT JUMPDEST DUP2 CALLDATALOAD PUSH8 0xFFFFFFFFFFFFFFFF DUP2 GT ISZERO PUSH2 0x231 JUMPI PUSH2 0x231 PUSH2 0x1F4 JUMP JUMPDEST PUSH1 0x40 MLOAD PUSH1 0x1F DUP3 ADD PUSH1 0x1F NOT SWAP1 DUP2 AND PUSH1 0x3F ADD AND DUP2 ADD PUSH8 0xFFFFFFFFFFFFFFFF DUP2 GT DUP3 DUP3 LT OR ISZERO PUSH2 0x260 JUMPI PUSH2 0x260 PUSH2 0x1F4 JUMP JUMPDEST PUSH1 0x40 MSTORE DUP2 DUP2 MSTORE DUP4 DUP3 ADD PUSH1 0x20 ADD DUP6 LT ISZERO PUSH2 0x277 JUMPI PUSH0 DUP1 REVERT JUMPDEST DUP2 PUSH1 0x20 DUP6 ADD PUSH1 0x20 DUP4 ADD CALLDATACOPY PUSH0 SWAP2 DUP2 ADD PUSH1 0x20 ADD SWAP2 SWAP1 SWAP2 MSTORE SWAP4 SWAP3 POP POP POP JUMP JUMPDEST PUSH0 PUSH1 0x20 DUP3 DUP5 SUB SLT ISZERO PUSH2 0x2A3 JUMPI PUSH0 DUP1 REVERT JUMPDEST DUP2 CALLDATALOAD PUSH8 0xFFFFFFFFFFFFFFFF DUP2 GT ISZERO PUSH2 0x2B9 JUMPI PUSH0 DUP1 REVERT JUMPDEST PUSH2 0x2C5 DUP5 DUP3 DUP6 ADD PUSH2 0x208 JUMP JUMPDEST SWAP5 SWAP4 POP POP POP POP JUMP JUMPDEST PUSH0 DUP1 PUSH0 PUSH1 0x60 DUP5 DUP7 SUB SLT ISZERO PUSH2 0x2DF JUMPI PUSH0 DUP1 REVERT JUMPDEST DUP4 CALLDATALOAD PUSH1 0x1 PUSH1 0x1 PUSH1 0xA0 SHL SUB DUP2 AND DUP2 EQ PUSH2 0x2F5 JUMPI PUSH0 DUP1 REVERT JUMPDEST SWAP3 POP PUSH1 0x20 DUP5 ADD CALLDATALOAD SWAP2 POP PUSH1 0x40 DUP5 ADD CALLDATALOAD PUSH8 0xFFFFFFFFFFFFFFFF DUP2 GT ISZERO PUSH2 0x317 JUMPI PUSH0 DUP1 REVERT JUMPDEST PUSH2 0x323 DUP7 DUP3 DUP8 ADD PUSH2 0x208 JUMP JUMPDEST SWAP2 POP POP SWAP3 POP SWAP3 POP SWAP3 JUMP JUMPDEST DUP3 DUP2 MSTORE PUSH1 0x40 PUSH1 0x20 DUP3 ADD MSTORE PUSH0 DUP3 MLOAD DUP1 PUSH1 0x40 DUP5 ADD MSTORE DUP1 PUSH1 0x20 DUP6 ADD PUSH1 0x60 DUP6 ADD MCOPY PUSH0 PUSH1 0x60 DUP3 DUP6 ADD ADD MSTORE PUSH1 0x60 PUSH1 0x1F NOT PUSH1 0x1F DUP4 ADD AND DUP5 ADD ADD SWAP2 POP POP SWAP4 SWAP3 POP POP POP JUMP INVALID LOG2 PUSH5 0x6970667358 0x22 SLT KECCAK256 0x1F 0xBC RETURNDATASIZE SSTORE 0xD8 0xBA 0xF6 0xDB 0xAC PUSH32 0x3D33EE8CA787DBA5FA33C97C8448A546D968F7433A6F64736F6C634300081A00 CALLER "
		},
		"gasEstimates": {
			"creation": {
				"codeDepositCost": "185400",
				"executionCost": "224",
				"totalCost": "185624"
			},
			"external": {
				"": "116",
				"deposit(string)": "infinite",
				"getContractBalance()": "147",
				"withdraw(address,uint256,string)": "infinite"
			}
		},
		"methodIdentifiers": {
			"deposit(string)": "a26e1186",
			"getContractBalance()": "6f9fb98a",
			"withdraw(address,uint256,string)": "e088747b"
		}
	},
	"abi": [
		{
			"anonymous": false,
			"inputs": [
				{
					"indexed": true,
					"internalType": "address",
					"name": "user",
					"type": "address"
				},
				{
					"indexed": false,
					"internalType": "uint256",
					"name": "amount",
					"type": "uint256"
				},
				{
					"indexed": false,
					"internalType": "string",
					"name": "userId",
					"type": "string"
				}
			],
			"name": "Deposit",
			"type": "event"
		},
		{
			"anonymous": false,
			"inputs": [
				{
					"indexed": true,
					"internalType": "address",
					"name": "user",
					"type": "address"
				},
				{
					"indexed": false,
					"internalType": "uint256",
					"name": "amount",
					"type": "uint256"
				},
				{
					"indexed": false,
					"internalType": "string",
					"name": "userId",
					"type": "string"
				}
			],
			"name": "Withdrawal",
			"type": "event"
		},
		{
			"stateMutability": "payable",
			"type": "fallback"
		},
		{
			"inputs": [
				{
					"internalType": "string",
					"name": "userId",
					"type": "string"
				}
			],
			"name": "deposit",
			"outputs": [],
			"stateMutability": "payable",
			"type": "function"
		},
		{
			"inputs": [],
			"name": "getContractBalance",
			"outputs": [
				{
					"internalType": "uint256",
					"name": "",
					"type": "uint256"
				}
			],
			"stateMutability": "view",
			"type": "function"
		},
		{
			"inputs": [
				{
					"internalType": "address payable",
					"name": "recipient",
					"type": "address"
				},
				{
					"internalType": "uint256",
					"name": "amount",
					"type": "uint256"
				},
				{
					"internalType": "string",
					"name": "userId",
					"type": "string"
				}
			],
			"name": "withdraw",
			"outputs": [],
			"stateMutability": "nonpayable",
			"type": "function"
		},
		{
			"stateMutability": "payable",
			"type": "receive"
		}
	]
}