{
	"EtherSender.sol": {
		"EtherSender": {
			"abi": [
				{
					"anonymous": false,
					"inputs": [
						{
							"indexed": false,
							"internalType": "address",
							"name": "recipient",
							"type": "address"
						},
						{
							"indexed": false,
							"internalType": "uint256",
							"name": "amount",
							"type": "uint256"
						}
					],
					"name": "Sent",
					"type": "event"
				},
				{
					"inputs": [],
					"name": "getBalance",
					"outputs": [
						{
							"internalType": "uint256",
							"name": "",
							"type": "uint256"
						}
					],
					"stateMutability": "view",
					"type": "function"
				},
				{
					"inputs": [
						{
							"internalType": "address payable",
							"name": "_recipient",
							"type": "address"
						},
						{
							"internalType": "uint256",
							"name": "_amount",
							"type": "uint256"
						}
					],
					"name": "sendEther",
					"outputs": [],
					"stateMutability": "nonpayable",
					"type": "function"
				},
				{
					"stateMutability": "payable",
					"type": "receive"
				}
			],
			"devdoc": {
				"kind": "dev",
				"methods": {},
				"version": 1
			},
			"evm": {
				"assembly": "    /* \"EtherSender.sol\":60:744  contract EtherSender {... */\n  mstore(0x40, 0x80)\n  callvalue\n  dup1\n  iszero\n  tag_1\n  jumpi\n  0x00\n  dup1\n  revert\ntag_1:\n  pop\n  dataSize(sub_0)\n  dup1\n  dataOffset(sub_0)\n  0x00\n  codecopy\n  0x00\n  return\nstop\n\nsub_0: assembly {\n        /* \"EtherSender.sol\":60:744  contract EtherSender {... */\n      mstore(0x40, 0x80)\n      jumpi(tag_1, lt(calldatasize, 0x04))\n      shr(0xe0, calldataload(0x00))\n      dup1\n      0x12065fe0\n      eq\n      tag_3\n      jumpi\n      dup1\n      0xc1756a2c\n      eq\n      tag_4\n      jumpi\n      0x00\n      dup1\n      revert\n    tag_1:\n      jumpi(tag_2, calldatasize)\n      stop\n    tag_2:\n      0x00\n      dup1\n      revert\n        /* \"EtherSender.sol\":645:741  function getBalance() public view returns (uint) {... */\n    tag_3:\n      callvalue\n      dup1\n      iszero\n      tag_7\n      jumpi\n      0x00\n      dup1\n      revert\n    tag_7:\n      pop\n        /* \"EtherSender.sol\":712:733  address(this).balance */\n      selfbalance\n        /* \"EtherSender.sol\":645:741  function getBalance() public view returns (uint) {... */\n      mload(0x40)\n        /* \"#utility.yul\":160:185   */\n      swap1\n      dup2\n      mstore\n        /* \"#utility.yul\":148:150   */\n      0x20\n        /* \"#utility.yul\":133:151   */\n      add\n        /* \"EtherSender.sol\":645:741  function getBalance() public view returns (uint) {... */\n      mload(0x40)\n      dup1\n      swap2\n      sub\n      swap1\n      return\n        /* \"EtherSender.sol\":347:590  function sendEther(address payable _recipient, uint _amount) public {... */\n    tag_4:\n      callvalue\n      dup1\n      iszero\n      tag_12\n      jumpi\n      0x00\n      dup1\n      revert\n    tag_12:\n      pop\n      tag_13\n      tag_14\n      calldatasize\n      0x04\n      tag_15\n      jump\t// in\n    tag_14:\n      tag_16\n      jump\t// in\n    tag_13:\n      stop\n    tag_16:\n        /* \"EtherSender.sol\":459:466  _amount */\n      dup1\n        /* \"EtherSender.sol\":434:455  address(this).balance */\n      selfbalance\n        /* \"EtherSender.sol\":434:466  address(this).balance >= _amount */\n      lt\n      iszero\n        /* \"EtherSender.sol\":426:500  require(address(this).balance >= _amount, \"Insufficient contract balance\") */\n      tag_19\n      jumpi\n      mload(0x40)\n      shl(0xe5, 0x461bcd)\n      dup2\n      mstore\n        /* \"#utility.yul\":765:767   */\n      0x20\n        /* \"EtherSender.sol\":426:500  require(address(this).balance >= _amount, \"Insufficient contract balance\") */\n      0x04\n      dup3\n      add\n        /* \"#utility.yul\":747:768   */\n      mstore\n        /* \"#utility.yul\":804:806   */\n      0x1d\n        /* \"#utility.yul\":784:802   */\n      0x24\n      dup3\n      add\n        /* \"#utility.yul\":777:807   */\n      mstore\n        /* \"#utility.yul\":843:874   */\n      0x496e73756666696369656e7420636f6e74726163742062616c616e6365000000\n        /* \"#utility.yul\":823:841   */\n      0x44\n      dup3\n      add\n        /* \"#utility.yul\":816:875   */\n      mstore\n        /* \"#utility.yul\":892:910   */\n      0x64\n      add\n        /* \"EtherSender.sol\":426:500  require(address(this).balance >= _amount, \"Insufficient contract balance\") */\n      mload(0x40)\n      dup1\n      swap2\n      sub\n      swap1\n      revert\n    tag_19:\n        /* \"EtherSender.sol\":511:539  _recipient.transfer(_amount) */\n      mload(0x40)\n      sub(shl(0xa0, 0x01), 0x01)\n        /* \"EtherSender.sol\":511:530  _recipient.transfer */\n      dup4\n      and\n      swap1\n        /* \"EtherSender.sol\":511:539  _recipient.transfer(_amount) */\n      dup3\n      iszero\n      0x08fc\n      mul\n      swap1\n        /* \"EtherSender.sol\":531:538  _amount */\n      dup4\n      swap1\n        /* \"EtherSender.sol\":511:539  _recipient.transfer(_amount) */\n      0x00\n      dup2\n      dup2\n      dup2\n        /* \"EtherSender.sol\":531:538  _amount */\n      dup6\n        /* \"EtherSender.sol\":511:530  _recipient.transfer */\n      dup9\n        /* \"EtherSender.sol\":511:539  _recipient.transfer(_amount) */\n      dup9\n      call\n      swap4\n      pop\n      pop\n      pop\n      pop\n      iszero\n      dup1\n      iszero\n      tag_23\n      jumpi\n      returndatasize\n      0x00\n      dup1\n      returndatacopy\n      revert(0x00, returndatasize)\n    tag_23:\n      pop\n        /* \"EtherSender.sol\":557:582  Sent(_recipient, _amount) */\n      0x40\n      dup1\n      mload\n      sub(shl(0xa0, 0x01), 0x01)\n        /* \"#utility.yul\":1121:1153   */\n      dup5\n      and\n        /* \"#utility.yul\":1103:1154   */\n      dup2\n      mstore\n        /* \"#utility.yul\":1185:1187   */\n      0x20\n        /* \"#utility.yul\":1170:1188   */\n      dup2\n      add\n        /* \"#utility.yul\":1163:1197   */\n      dup4\n      swap1\n      mstore\n        /* \"EtherSender.sol\":557:582  Sent(_recipient, _amount) */\n      0x510ffb4dcab972ae9d2007a58e13f1b0881776d23cd8f5cc32f8c5be2dbf70d2\n      swap2\n        /* \"#utility.yul\":1076:1094   */\n      add\n        /* \"EtherSender.sol\":557:582  Sent(_recipient, _amount) */\n      mload(0x40)\n      dup1\n      swap2\n      sub\n      swap1\n      log1\n        /* \"EtherSender.sol\":347:590  function sendEther(address payable _recipient, uint _amount) public {... */\n      pop\n      pop\n      jump\t// out\n        /* \"#utility.yul\":196:558   */\n    tag_15:\n        /* \"#utility.yul\":272:278   */\n      0x00\n        /* \"#utility.yul\":280:286   */\n      dup1\n        /* \"#utility.yul\":333:335   */\n      0x40\n        /* \"#utility.yul\":321:330   */\n      dup4\n        /* \"#utility.yul\":312:319   */\n      dup6\n        /* \"#utility.yul\":308:331   */\n      sub\n        /* \"#utility.yul\":304:336   */\n      slt\n        /* \"#utility.yul\":301:353   */\n      iszero\n      tag_29\n      jumpi\n        /* \"#utility.yul\":349:350   */\n      0x00\n        /* \"#utility.yul\":346:347   */\n      dup1\n        /* \"#utility.yul\":339:351   */\n      revert\n        /* \"#utility.yul\":301:353   */\n    tag_29:\n        /* \"#utility.yul\":375:398   */\n      dup3\n      calldataload\n      sub(shl(0xa0, 0x01), 0x01)\n        /* \"#utility.yul\":427:458   */\n      dup2\n      and\n        /* \"#utility.yul\":417:459   */\n      dup2\n      eq\n        /* \"#utility.yul\":407:477   */\n      tag_30\n      jumpi\n        /* \"#utility.yul\":473:474   */\n      0x00\n        /* \"#utility.yul\":470:471   */\n      dup1\n        /* \"#utility.yul\":463:475   */\n      revert\n        /* \"#utility.yul\":407:477   */\n    tag_30:\n        /* \"#utility.yul\":496:501   */\n      swap5\n        /* \"#utility.yul\":548:550   */\n      0x20\n        /* \"#utility.yul\":533:551   */\n      swap4\n      swap1\n      swap4\n      add\n        /* \"#utility.yul\":520:552   */\n      calldataload\n      swap4\n      pop\n      pop\n      pop\n        /* \"#utility.yul\":196:558   */\n      jump\t// out\n\n    auxdata: 0xa26469706673582212205cefd91c9c95d9b960e2b924170f0b8bbb1247d5448a21ee52ade6bd4223386464736f6c634300081a0033\n}\n",
				"bytecode": {
					"linkReferences": {},
					"object": "6080604052348015600e575f80fd5b506101af8061001c5f395ff3fe60806040526004361061002b575f3560e01c806312065fe014610036578063c1756a2c14610055575f80fd5b3661003257005b5f80fd5b348015610041575f80fd5b504760405190815260200160405180910390f35b348015610060575f80fd5b5061007461006f366004610144565b610076565b005b804710156100ca5760405162461bcd60e51b815260206004820152601d60248201527f496e73756666696369656e7420636f6e74726163742062616c616e6365000000604482015260640160405180910390fd5b6040516001600160a01b0383169082156108fc029083905f818181858888f193505050501580156100fd573d5f803e3d5ffd5b50604080516001600160a01b0384168152602081018390527f510ffb4dcab972ae9d2007a58e13f1b0881776d23cd8f5cc32f8c5be2dbf70d2910160405180910390a15050565b5f8060408385031215610155575f80fd5b82356001600160a01b038116811461016b575f80fd5b94602093909301359350505056fea26469706673582212205cefd91c9c95d9b960e2b924170f0b8bbb1247d5448a21ee52ade6bd4223386464736f6c634300081a0033",
					"opcodes": "PUSH1 0x80 PUSH1 0x40 MSTORE CALLVALUE DUP1 ISZERO PUSH1 0xE JUMPI PUSH0 DUP1 REVERT JUMPDEST POP PUSH2 0x1AF DUP1 PUSH2 0x1C PUSH0 CODECOPY PUSH0 RETURN INVALID PUSH1 0x80 PUSH1 0x40 MSTORE PUSH1 0x4 CALLDATASIZE LT PUSH2 0x2B JUMPI PUSH0 CALLDATALOAD PUSH1 0xE0 SHR DUP1 PUSH4 0x12065FE0 EQ PUSH2 0x36 JUMPI DUP1 PUSH4 0xC1756A2C EQ PUSH2 0x55 JUMPI PUSH0 DUP1 REVERT JUMPDEST CALLDATASIZE PUSH2 0x32 JUMPI STOP JUMPDEST PUSH0 DUP1 REVERT JUMPDEST CALLVALUE DUP1 ISZERO PUSH2 0x41 JUMPI PUSH0 DUP1 REVERT JUMPDEST POP SELFBALANCE PUSH1 0x40 MLOAD SWAP1 DUP2 MSTORE PUSH1 0x20 ADD PUSH1 0x40 MLOAD DUP1 SWAP2 SUB SWAP1 RETURN JUMPDEST CALLVALUE DUP1 ISZERO PUSH2 0x60 JUMPI PUSH0 DUP1 REVERT JUMPDEST POP PUSH2 0x74 PUSH2 0x6F CALLDATASIZE PUSH1 0x4 PUSH2 0x144 JUMP JUMPDEST PUSH2 0x76 JUMP JUMPDEST STOP JUMPDEST DUP1 SELFBALANCE LT ISZERO PUSH2 0xCA JUMPI PUSH1 0x40 MLOAD PUSH3 0x461BCD PUSH1 0xE5 SHL DUP2 MSTORE PUSH1 0x20 PUSH1 0x4 DUP3 ADD MSTORE PUSH1 0x1D PUSH1 0x24 DUP3 ADD MSTORE PUSH32 0x496E73756666696369656E7420636F6E74726163742062616C616E6365000000 PUSH1 0x44 DUP3 ADD MSTORE PUSH1 0x64 ADD PUSH1 0x40 MLOAD DUP1 SWAP2 SUB SWAP1 REVERT JUMPDEST PUSH1 0x40 MLOAD PUSH1 0x1 PUSH1 0x1 PUSH1 0xA0 SHL SUB DUP4 AND SWAP1 DUP3 ISZERO PUSH2 0x8FC MUL SWAP1 DUP4 SWAP1 PUSH0 DUP2 DUP2 DUP2 DUP6 DUP9 DUP9 CALL SWAP4 POP POP POP POP ISZERO DUP1 ISZERO PUSH2 0xFD JUMPI RETURNDATASIZE PUSH0 DUP1 RETURNDATACOPY RETURNDATASIZE PUSH0 REVERT JUMPDEST POP PUSH1 0x40 DUP1 MLOAD PUSH1 0x1 PUSH1 0x1 PUSH1 0xA0 SHL SUB DUP5 AND DUP2 MSTORE PUSH1 0x20 DUP2 ADD DUP4 SWAP1 MSTORE PUSH32 0x510FFB4DCAB972AE9D2007A58E13F1B0881776D23CD8F5CC32F8C5BE2DBF70D2 SWAP2 ADD PUSH1 0x40 MLOAD DUP1 SWAP2 SUB SWAP1 LOG1 POP POP JUMP JUMPDEST PUSH0 DUP1 PUSH1 0x40 DUP4 DUP6 SUB SLT ISZERO PUSH2 0x155 JUMPI PUSH0 DUP1 REVERT JUMPDEST DUP3 CALLDATALOAD PUSH1 0x1 PUSH1 0x1 PUSH1 0xA0 SHL SUB DUP2 AND DUP2 EQ PUSH2 0x16B JUMPI PUSH0 DUP1 REVERT JUMPDEST SWAP5 PUSH1 0x20 SWAP4 SWAP1 SWAP4 ADD CALLDATALOAD SWAP4 POP POP POP JUMP INVALID LOG2 PUSH5 0x6970667358 0x22 SLT KECCAK256 TLOAD 0xEF 0xD9 SHR SWAP13 SWAP6 0xD9 0xB9 PUSH1 0xE2 0xB9 0x24 OR 0xF SIGNEXTEND DUP12 0xBB SLT SELFBALANCE 0xD5 PREVRANDAO DUP11 0x21 0xEE MSTORE 0xAD 0xE6 0xBD TIMESTAMP 0x23 CODESIZE PUSH5 0x64736F6C63 NUMBER STOP ADDMOD BYTE STOP CALLER "
				},
				"gasEstimates": {
					"creation": {
						"codeDepositCost": "86200",
						"executionCost": "133",
						"totalCost": "86333"
					},
					"external": {
						"getBalance()": "147",
						"sendEther(address,uint256)": "infinite"
					}
				},
				"methodIdentifiers": {
					"getBalance()": "12065fe0",
					"sendEther(address,uint256)": "c1756a2c"
				}
			},
			"storageLayout": {
				"storage": [],
				"types": null
			},
			"userdoc": {
				"kind": "user",
				"methods": {},
				"version": 1
			}
		}
	}
}