{
	"etherrecieve.sol": {
		"EtherReceiver": {
			"abi": [
				{
					"anonymous": false,
					"inputs": [
						{
							"indexed": false,
							"internalType": "address",
							"name": "sender",
							"type": "address"
						},
						{
							"indexed": false,
							"internalType": "uint256",
							"name": "amount",
							"type": "uint256"
						}
					],
					"name": "Received",
					"type": "event"
				},
				{
					"stateMutability": "payable",
					"type": "fallback"
				},
				{
					"inputs": [],
					"name": "getBalance",
					"outputs": [
						{
							"internalType": "uint256",
							"name": "",
							"type": "uint256"
						}
					],
					"stateMutability": "view",
					"type": "function"
				},
				{
					"inputs": [
						{
							"internalType": "address payable",
							"name": "_to",
							"type": "address"
						},
						{
							"internalType": "uint256",
							"name": "_amount",
							"type": "uint256"
						}
					],
					"name": "withdraw",
					"outputs": [],
					"stateMutability": "nonpayable",
					"type": "function"
				},
				{
					"stateMutability": "payable",
					"type": "receive"
				}
			],
			"devdoc": {
				"kind": "dev",
				"methods": {},
				"version": 1
			},
			"evm": {
				"assembly": "    /* \"etherrecieve.sol\":60:856  contract EtherReceiver {... */\n  mstore(0x40, 0x80)\n  callvalue\n  dup1\n  iszero\n  tag_1\n  jumpi\n  0x00\n  dup1\n  revert\ntag_1:\n  pop\n  dataSize(sub_0)\n  dup1\n  dataOffset(sub_0)\n  0x00\n  codecopy\n  0x00\n  return\nstop\n\nsub_0: assembly {\n        /* \"etherrecieve.sol\":60:856  contract EtherReceiver {... */\n      mstore(0x40, 0x80)\n      jumpi(tag_1, lt(calldatasize, 0x04))\n      shr(0xe0, calldataload(0x00))\n      dup1\n      0x12065fe0\n      eq\n      tag_3\n      jumpi\n      dup1\n      0xf3fef3a3\n      eq\n      tag_4\n      jumpi\n      jump(tag_2)\n    tag_1:\n      jumpi(tag_2, calldatasize)\n        /* \"etherrecieve.sol\":271:302  Received(msg.sender, msg.value) */\n      0x40\n      dup1\n      mload\n        /* \"etherrecieve.sol\":280:290  msg.sender */\n      caller\n        /* \"#utility.yul\":188:239   */\n      dup2\n      mstore\n        /* \"etherrecieve.sol\":292:301  msg.value */\n      callvalue\n        /* \"#utility.yul\":270:272   */\n      0x20\n        /* \"#utility.yul\":255:273   */\n      dup3\n      add\n        /* \"#utility.yul\":248:282   */\n      mstore\n        /* \"etherrecieve.sol\":271:302  Received(msg.sender, msg.value) */\n      0x88a5966d370b9919b20f3e2c13ff65706f196a4e32cc2c12bf57088f88525874\n      swap2\n        /* \"#utility.yul\":161:179   */\n      add\n        /* \"etherrecieve.sol\":271:302  Received(msg.sender, msg.value) */\n    tag_7:\n      mload(0x40)\n      dup1\n      swap2\n      sub\n      swap1\n      log1\n        /* \"etherrecieve.sol\":60:856  contract EtherReceiver {... */\n      stop\n    tag_2:\n        /* \"etherrecieve.sol\":424:455  Received(msg.sender, msg.value) */\n      0x40\n      dup1\n      mload\n        /* \"etherrecieve.sol\":433:443  msg.sender */\n      caller\n        /* \"#utility.yul\":188:239   */\n      dup2\n      mstore\n        /* \"etherrecieve.sol\":445:454  msg.value */\n      callvalue\n        /* \"#utility.yul\":270:272   */\n      0x20\n        /* \"#utility.yul\":255:273   */\n      dup3\n      add\n        /* \"#utility.yul\":248:282   */\n      mstore\n        /* \"etherrecieve.sol\":424:455  Received(msg.sender, msg.value) */\n      0x88a5966d370b9919b20f3e2c13ff65706f196a4e32cc2c12bf57088f88525874\n      swap2\n        /* \"#utility.yul\":161:179   */\n      add\n        /* \"etherrecieve.sol\":424:455  Received(msg.sender, msg.value) */\n      tag_7\n        /* \"#utility.yul\":14:288   */\n      jump\n        /* \"etherrecieve.sol\":516:612  function getBalance() public view returns (uint) {... */\n    tag_3:\n      callvalue\n      dup1\n      iszero\n      tag_12\n      jumpi\n      0x00\n      dup1\n      revert\n    tag_12:\n      pop\n        /* \"etherrecieve.sol\":583:604  address(this).balance */\n      selfbalance\n        /* \"etherrecieve.sol\":516:612  function getBalance() public view returns (uint) {... */\n      mload(0x40)\n        /* \"#utility.yul\":439:464   */\n      swap1\n      dup2\n      mstore\n        /* \"#utility.yul\":427:429   */\n      0x20\n        /* \"#utility.yul\":412:430   */\n      add\n        /* \"etherrecieve.sol\":516:612  function getBalance() public view returns (uint) {... */\n      mload(0x40)\n      dup1\n      swap2\n      sub\n      swap1\n      return\n        /* \"etherrecieve.sol\":677:853  function withdraw(address payable _to, uint _amount) public {... */\n    tag_4:\n      callvalue\n      dup1\n      iszero\n      tag_17\n      jumpi\n      0x00\n      dup1\n      revert\n    tag_17:\n      pop\n      tag_18\n      tag_19\n      calldatasize\n      0x04\n      tag_20\n      jump\t// in\n    tag_19:\n      tag_21\n      jump\t// in\n    tag_18:\n      stop\n    tag_21:\n        /* \"etherrecieve.sol\":767:788  address(this).balance */\n      selfbalance\n        /* \"etherrecieve.sol\":756:763  _amount */\n      dup2\n        /* \"etherrecieve.sol\":756:788  _amount <= address(this).balance */\n      gt\n      iszero\n        /* \"etherrecieve.sol\":748:813  require(_amount <= address(this).balance, \"Insufficient balance\") */\n      tag_24\n      jumpi\n      mload(0x40)\n      shl(0xe5, 0x461bcd)\n      dup2\n      mstore\n        /* \"#utility.yul\":1044:1046   */\n      0x20\n        /* \"etherrecieve.sol\":748:813  require(_amount <= address(this).balance, \"Insufficient balance\") */\n      0x04\n      dup3\n      add\n        /* \"#utility.yul\":1026:1047   */\n      mstore\n        /* \"#utility.yul\":1083:1085   */\n      0x14\n        /* \"#utility.yul\":1063:1081   */\n      0x24\n      dup3\n      add\n        /* \"#utility.yul\":1056:1086   */\n      mstore\n      shl(0x60, 0x496e73756666696369656e742062616c616e6365)\n        /* \"#utility.yul\":1102:1120   */\n      0x44\n      dup3\n      add\n        /* \"#utility.yul\":1095:1145   */\n      mstore\n        /* \"#utility.yul\":1162:1180   */\n      0x64\n      add\n        /* \"etherrecieve.sol\":748:813  require(_amount <= address(this).balance, \"Insufficient balance\") */\n      mload(0x40)\n      dup1\n      swap2\n      sub\n      swap1\n      revert\n    tag_24:\n        /* \"etherrecieve.sol\":824:845  _to.transfer(_amount) */\n      mload(0x40)\n      sub(shl(0xa0, 0x01), 0x01)\n        /* \"etherrecieve.sol\":824:836  _to.transfer */\n      dup4\n      and\n      swap1\n        /* \"etherrecieve.sol\":824:845  _to.transfer(_amount) */\n      dup3\n      iszero\n      0x08fc\n      mul\n      swap1\n        /* \"etherrecieve.sol\":837:844  _amount */\n      dup4\n      swap1\n        /* \"etherrecieve.sol\":824:845  _to.transfer(_amount) */\n      0x00\n      dup2\n      dup2\n      dup2\n        /* \"etherrecieve.sol\":837:844  _amount */\n      dup6\n        /* \"etherrecieve.sol\":824:836  _to.transfer */\n      dup9\n        /* \"etherrecieve.sol\":824:845  _to.transfer(_amount) */\n      dup9\n      call\n      swap4\n      pop\n      pop\n      pop\n      pop\n      iszero\n      dup1\n      iszero\n      tag_28\n      jumpi\n      returndatasize\n      0x00\n      dup1\n      returndatacopy\n      revert(0x00, returndatasize)\n    tag_28:\n      pop\n        /* \"etherrecieve.sol\":677:853  function withdraw(address payable _to, uint _amount) public {... */\n      pop\n      pop\n      jump\t// out\n        /* \"#utility.yul\":475:837   */\n    tag_20:\n        /* \"#utility.yul\":551:557   */\n      0x00\n        /* \"#utility.yul\":559:565   */\n      dup1\n        /* \"#utility.yul\":612:614   */\n      0x40\n        /* \"#utility.yul\":600:609   */\n      dup4\n        /* \"#utility.yul\":591:598   */\n      dup6\n        /* \"#utility.yul\":587:610   */\n      sub\n        /* \"#utility.yul\":583:615   */\n      slt\n        /* \"#utility.yul\":580:632   */\n      iszero\n      tag_33\n      jumpi\n        /* \"#utility.yul\":628:629   */\n      0x00\n        /* \"#utility.yul\":625:626   */\n      dup1\n        /* \"#utility.yul\":618:630   */\n      revert\n        /* \"#utility.yul\":580:632   */\n    tag_33:\n        /* \"#utility.yul\":654:677   */\n      dup3\n      calldataload\n      sub(shl(0xa0, 0x01), 0x01)\n        /* \"#utility.yul\":706:737   */\n      dup2\n      and\n        /* \"#utility.yul\":696:738   */\n      dup2\n      eq\n        /* \"#utility.yul\":686:756   */\n      tag_34\n      jumpi\n        /* \"#utility.yul\":752:753   */\n      0x00\n        /* \"#utility.yul\":749:750   */\n      dup1\n        /* \"#utility.yul\":742:754   */\n      revert\n        /* \"#utility.yul\":686:756   */\n    tag_34:\n        /* \"#utility.yul\":775:780   */\n      swap5\n        /* \"#utility.yul\":827:829   */\n      0x20\n        /* \"#utility.yul\":812:830   */\n      swap4\n      swap1\n      swap4\n      add\n        /* \"#utility.yul\":799:831   */\n      calldataload\n      swap4\n      pop\n      pop\n      pop\n        /* \"#utility.yul\":475:837   */\n      jump\t// out\n\n    auxdata: 0xa264697066735822122061ab17497c81228219ea00ba4db39d7a7ac36ac848e00ac929fe9fd9659fda4b64736f6c634300081a0033\n}\n",
				"bytecode": {
					"linkReferences": {},
					"object": "6080604052348015600e575f80fd5b506101cf8061001c5f395ff3fe60806040526004361061002c575f3560e01c806312065fe0146100a1578063f3fef3a3146100c05761006c565b3661006c57604080513381523460208201527f88a5966d370b9919b20f3e2c13ff65706f196a4e32cc2c12bf57088f8852587491015b60405180910390a1005b604080513381523460208201527f88a5966d370b9919b20f3e2c13ff65706f196a4e32cc2c12bf57088f885258749101610062565b3480156100ac575f80fd5b504760405190815260200160405180910390f35b3480156100cb575f80fd5b506100df6100da366004610164565b6100e1565b005b4781111561012c5760405162461bcd60e51b8152602060048201526014602482015273496e73756666696369656e742062616c616e636560601b604482015260640160405180910390fd5b6040516001600160a01b0383169082156108fc029083905f818181858888f1935050505015801561015f573d5f803e3d5ffd5b505050565b5f8060408385031215610175575f80fd5b82356001600160a01b038116811461018b575f80fd5b94602093909301359350505056fea264697066735822122061ab17497c81228219ea00ba4db39d7a7ac36ac848e00ac929fe9fd9659fda4b64736f6c634300081a0033",
					"opcodes": "PUSH1 0x80 PUSH1 0x40 MSTORE CALLVALUE DUP1 ISZERO PUSH1 0xE JUMPI PUSH0 DUP1 REVERT JUMPDEST POP PUSH2 0x1CF DUP1 PUSH2 0x1C PUSH0 CODECOPY PUSH0 RETURN INVALID PUSH1 0x80 PUSH1 0x40 MSTORE PUSH1 0x4 CALLDATASIZE LT PUSH2 0x2C JUMPI PUSH0 CALLDATALOAD PUSH1 0xE0 SHR DUP1 PUSH4 0x12065FE0 EQ PUSH2 0xA1 JUMPI DUP1 PUSH4 0xF3FEF3A3 EQ PUSH2 0xC0 JUMPI PUSH2 0x6C JUMP JUMPDEST CALLDATASIZE PUSH2 0x6C JUMPI PUSH1 0x40 DUP1 MLOAD CALLER DUP2 MSTORE CALLVALUE PUSH1 0x20 DUP3 ADD MSTORE PUSH32 0x88A5966D370B9919B20F3E2C13FF65706F196A4E32CC2C12BF57088F88525874 SWAP2 ADD JUMPDEST PUSH1 0x40 MLOAD DUP1 SWAP2 SUB SWAP1 LOG1 STOP JUMPDEST PUSH1 0x40 DUP1 MLOAD CALLER DUP2 MSTORE CALLVALUE PUSH1 0x20 DUP3 ADD MSTORE PUSH32 0x88A5966D370B9919B20F3E2C13FF65706F196A4E32CC2C12BF57088F88525874 SWAP2 ADD PUSH2 0x62 JUMP JUMPDEST CALLVALUE DUP1 ISZERO PUSH2 0xAC JUMPI PUSH0 DUP1 REVERT JUMPDEST POP SELFBALANCE PUSH1 0x40 MLOAD SWAP1 DUP2 MSTORE PUSH1 0x20 ADD PUSH1 0x40 MLOAD DUP1 SWAP2 SUB SWAP1 RETURN JUMPDEST CALLVALUE DUP1 ISZERO PUSH2 0xCB JUMPI PUSH0 DUP1 REVERT JUMPDEST POP PUSH2 0xDF PUSH2 0xDA CALLDATASIZE PUSH1 0x4 PUSH2 0x164 JUMP JUMPDEST PUSH2 0xE1 JUMP JUMPDEST STOP JUMPDEST SELFBALANCE DUP2 GT ISZERO PUSH2 0x12C JUMPI PUSH1 0x40 MLOAD PUSH3 0x461BCD PUSH1 0xE5 SHL DUP2 MSTORE PUSH1 0x20 PUSH1 0x4 DUP3 ADD MSTORE PUSH1 0x14 PUSH1 0x24 DUP3 ADD MSTORE PUSH20 0x496E73756666696369656E742062616C616E6365 PUSH1 0x60 SHL PUSH1 0x44 DUP3 ADD MSTORE PUSH1 0x64 ADD PUSH1 0x40 MLOAD DUP1 SWAP2 SUB SWAP1 REVERT JUMPDEST PUSH1 0x40 MLOAD PUSH1 0x1 PUSH1 0x1 PUSH1 0xA0 SHL SUB DUP4 AND SWAP1 DUP3 ISZERO PUSH2 0x8FC MUL SWAP1 DUP4 SWAP1 PUSH0 DUP2 DUP2 DUP2 DUP6 DUP9 DUP9 CALL SWAP4 POP POP POP POP ISZERO DUP1 ISZERO PUSH2 0x15F JUMPI RETURNDATASIZE PUSH0 DUP1 RETURNDATACOPY RETURNDATASIZE PUSH0 REVERT JUMPDEST POP POP POP JUMP JUMPDEST PUSH0 DUP1 PUSH1 0x40 DUP4 DUP6 SUB SLT ISZERO PUSH2 0x175 JUMPI PUSH0 DUP1 REVERT JUMPDEST DUP3 CALLDATALOAD PUSH1 0x1 PUSH1 0x1 PUSH1 0xA0 SHL SUB DUP2 AND DUP2 EQ PUSH2 0x18B JUMPI PUSH0 DUP1 REVERT JUMPDEST SWAP5 PUSH1 0x20 SWAP4 SWAP1 SWAP4 ADD CALLDATALOAD SWAP4 POP POP POP JUMP INVALID LOG2 PUSH5 0x6970667358 0x22 SLT KECCAK256 PUSH2 0xAB17 BLOBHASH PUSH29 0x81228219EA00BA4DB39D7A7AC36AC848E00AC929FE9FD9659FDA4B6473 PUSH16 0x6C634300081A00330000000000000000 "
				},
				"gasEstimates": {
					"creation": {
						"codeDepositCost": "92600",
						"executionCost": "139",
						"totalCost": "92739"
					},
					"external": {
						"": "1447",
						"getBalance()": "147",
						"withdraw(address,uint256)": "infinite"
					}
				},
				"methodIdentifiers": {
					"getBalance()": "12065fe0",
					"withdraw(address,uint256)": "f3fef3a3"
				}
			},
			"storageLayout": {
				"storage": [],
				"types": null
			},
			"userdoc": {
				"kind": "user",
				"methods": {},
				"version": 1
			}
		}
	}
}