{
	"payment.sol": {
		"Coin": {
			"abi": [
				{
					"anonymous": false,
					"inputs": [
						{
							"indexed": false,
							"internalType": "address",
							"name": "sender",
							"type": "address"
						},
						{
							"indexed": false,
							"internalType": "address",
							"name": "reciever",
							"type": "address"
						},
						{
							"indexed": false,
							"internalType": "uint256",
							"name": "amount",
							"type": "uint256"
						}
					],
					"name": "Sent",
					"type": "event"
				},
				{
					"inputs": [
						{
							"internalType": "address",
							"name": "",
							"type": "address"
						}
					],
					"name": "balances",
					"outputs": [
						{
							"internalType": "uint256",
							"name": "",
							"type": "uint256"
						}
					],
					"stateMutability": "view",
					"type": "function"
				},
				{
					"inputs": [
						{
							"internalType": "address",
							"name": "sender",
							"type": "address"
						},
						{
							"internalType": "address",
							"name": "receiver",
							"type": "address"
						},
						{
							"internalType": "uint256",
							"name": "amount",
							"type": "uint256"
						}
					],
					"name": "mint",
					"outputs": [],
					"stateMutability": "nonpayable",
					"type": "function"
				},
				{
					"inputs": [],
					"name": "minter",
					"outputs": [
						{
							"internalType": "address",
							"name": "",
							"type": "address"
						}
					],
					"stateMutability": "view",
					"type": "function"
				},
				{
					"inputs": [
						{
							"internalType": "address",
							"name": "sender",
							"type": "address"
						},
						{
							"internalType": "address",
							"name": "receiver",
							"type": "address"
						},
						{
							"internalType": "uint256",
							"name": "amount",
							"type": "uint256"
						}
					],
					"name": "send",
					"outputs": [],
					"stateMutability": "nonpayable",
					"type": "function"
				}
			],
			"devdoc": {
				"kind": "dev",
				"methods": {},
				"version": 1
			},
			"evm": {
				"assembly": "    /* \"payment.sol\":99:697  contract Coin {... */\n  mstore(0x40, 0x80)\n    /* \"payment.sol\":122:154  address public minter=msg.sender */\n  0x00\n  dup1\n  sload\n  not(sub(shl(0xa0, 0x01), 0x01))\n  and\n    /* \"payment.sol\":144:154  msg.sender */\n  caller\n    /* \"payment.sol\":122:154  address public minter=msg.sender */\n  or\n  swap1\n  sstore\n    /* \"payment.sol\":99:697  contract Coin {... */\n  callvalue\n  dup1\n  iszero\n  tag_1\n  jumpi\n  0x00\n  dup1\n  revert\ntag_1:\n  pop\n  dataSize(sub_0)\n  dup1\n  dataOffset(sub_0)\n  0x00\n  codecopy\n  0x00\n  return\nstop\n\nsub_0: assembly {\n        /* \"payment.sol\":99:697  contract Coin {... */\n      mstore(0x40, 0x80)\n      callvalue\n      dup1\n      iszero\n      tag_1\n      jumpi\n      0x00\n      dup1\n      revert\n    tag_1:\n      pop\n      jumpi(tag_2, lt(calldatasize, 0x04))\n      shr(0xe0, calldataload(0x00))\n      dup1\n      0x07546172\n      eq\n      tag_3\n      jumpi\n      dup1\n      0x0779afe6\n      eq\n      tag_4\n      jumpi\n      dup1\n      0x27e235e3\n      eq\n      tag_5\n      jumpi\n      dup1\n      0xc6c3bbe6\n      eq\n      tag_6\n      jumpi\n    tag_2:\n      0x00\n      dup1\n      revert\n        /* \"payment.sol\":122:154  address public minter=msg.sender */\n    tag_3:\n      sload(0x00)\n      tag_7\n      swap1\n      sub(shl(0xa0, 0x01), 0x01)\n      and\n      dup2\n      jump\n    tag_7:\n      mload(0x40)\n      sub(shl(0xa0, 0x01), 0x01)\n        /* \"#utility.yul\":178:210   */\n      swap1\n      swap2\n      and\n        /* \"#utility.yul\":160:211   */\n      dup2\n      mstore\n        /* \"#utility.yul\":148:150   */\n      0x20\n        /* \"#utility.yul\":133:151   */\n      add\n        /* \"payment.sol\":122:154  address public minter=msg.sender */\n    tag_9:\n      mload(0x40)\n      dup1\n      swap2\n      sub\n      swap1\n      return\n        /* \"payment.sol\":442:694  function send(address sender,address receiver, uint amount) public {... */\n    tag_4:\n      tag_11\n      tag_12\n      calldatasize\n      0x04\n      tag_13\n      jump\t// in\n    tag_12:\n      tag_14\n      jump\t// in\n    tag_11:\n      stop\n        /* \"payment.sol\":161:201  mapping(address => uint) public balances */\n    tag_5:\n      tag_15\n      tag_16\n      calldatasize\n      0x04\n      tag_17\n      jump\t// in\n    tag_16:\n      mstore(0x20, 0x01)\n      0x00\n      swap1\n      dup2\n      mstore\n      0x40\n      swap1\n      keccak256\n      sload\n      dup2\n      jump\n    tag_15:\n      mload(0x40)\n        /* \"#utility.yul\":1070:1095   */\n      swap1\n      dup2\n      mstore\n        /* \"#utility.yul\":1058:1060   */\n      0x20\n        /* \"#utility.yul\":1043:1061   */\n      add\n        /* \"payment.sol\":161:201  mapping(address => uint) public balances */\n      tag_9\n        /* \"#utility.yul\":924:1101   */\n      jump\n        /* \"payment.sol\":220:370  function mint(address sender,address receiver, uint amount) public {... */\n    tag_6:\n      tag_11\n      tag_22\n      calldatasize\n      0x04\n      tag_13\n      jump\t// in\n    tag_22:\n      tag_23\n      jump\t// in\n        /* \"payment.sol\":442:694  function send(address sender,address receiver, uint amount) public {... */\n    tag_14:\n      sub(shl(0xa0, 0x01), 0x01)\n        /* \"payment.sol\":538:554  balances[sender] */\n      dup4\n      and\n      0x00\n      swap1\n      dup2\n      mstore\n        /* \"payment.sol\":538:546  balances */\n      0x01\n        /* \"payment.sol\":538:554  balances[sender] */\n      0x20\n      mstore\n      0x40\n      swap1\n      keccak256\n      sload\n        /* \"payment.sol\":528:554  amount <= balances[sender] */\n      dup2\n      gt\n      iszero\n        /* \"payment.sol\":520:555  require(amount <= balances[sender]) */\n      tag_25\n      jumpi\n      0x00\n      dup1\n      revert\n    tag_25:\n      sub(shl(0xa0, 0x01), 0x01)\n        /* \"payment.sol\":566:582  balances[sender] */\n      dup4\n      and\n      0x00\n      swap1\n      dup2\n      mstore\n        /* \"payment.sol\":566:574  balances */\n      0x01\n        /* \"payment.sol\":566:582  balances[sender] */\n      0x20\n      mstore\n      0x40\n      dup2\n      keccak256\n        /* \"payment.sol\":566:592  balances[sender] -= amount */\n      dup1\n      sload\n        /* \"payment.sol\":586:592  amount */\n      dup4\n      swap3\n        /* \"payment.sol\":566:582  balances[sender] */\n      swap1\n        /* \"payment.sol\":566:592  balances[sender] -= amount */\n      tag_26\n      swap1\n        /* \"payment.sol\":586:592  amount */\n      dup5\n      swap1\n        /* \"payment.sol\":566:592  balances[sender] -= amount */\n      tag_27\n      jump\t// in\n    tag_26:\n      swap1\n      swap2\n      sstore\n      pop\n      pop\n      sub(shl(0xa0, 0x01), 0x01)\n        /* \"payment.sol\":603:621  balances[receiver] */\n      dup3\n      and\n      0x00\n      swap1\n      dup2\n      mstore\n        /* \"payment.sol\":603:611  balances */\n      0x01\n        /* \"payment.sol\":603:621  balances[receiver] */\n      0x20\n      mstore\n      0x40\n      dup2\n      keccak256\n        /* \"payment.sol\":603:631  balances[receiver] += amount */\n      dup1\n      sload\n        /* \"payment.sol\":625:631  amount */\n      dup4\n      swap3\n        /* \"payment.sol\":603:621  balances[receiver] */\n      swap1\n        /* \"payment.sol\":603:631  balances[receiver] += amount */\n      tag_28\n      swap1\n        /* \"payment.sol\":625:631  amount */\n      dup5\n      swap1\n        /* \"payment.sol\":603:631  balances[receiver] += amount */\n      tag_29\n      jump\t// in\n    tag_28:\n      swap1\n      swap2\n      sstore\n      pop\n      pop\n        /* \"payment.sol\":647:677  Sent(sender, receiver, amount) */\n      0x40\n      dup1\n      mload\n      sub(shl(0xa0, 0x01), 0x01)\n        /* \"#utility.yul\":1721:1753   */\n      dup1\n      dup7\n      and\n        /* \"#utility.yul\":1703:1754   */\n      dup3\n      mstore\n        /* \"#utility.yul\":1790:1822   */\n      dup5\n      and\n        /* \"#utility.yul\":1785:1787   */\n      0x20\n        /* \"#utility.yul\":1770:1788   */\n      dup3\n      add\n        /* \"#utility.yul\":1763:1823   */\n      mstore\n        /* \"#utility.yul\":1839:1857   */\n      swap1\n      dup2\n      add\n        /* \"#utility.yul\":1832:1866   */\n      dup3\n      swap1\n      mstore\n        /* \"payment.sol\":647:677  Sent(sender, receiver, amount) */\n      0x3990db2d31862302a685e8086b5755072a6e2b5b780af1ee81ece35ee3cd3345\n      swap1\n        /* \"#utility.yul\":1691:1693   */\n      0x60\n        /* \"#utility.yul\":1676:1694   */\n      add\n        /* \"payment.sol\":647:677  Sent(sender, receiver, amount) */\n      mload(0x40)\n      dup1\n      swap2\n      sub\n      swap1\n      log1\n        /* \"payment.sol\":442:694  function send(address sender,address receiver, uint amount) public {... */\n      pop\n      pop\n      pop\n      jump\t// out\n        /* \"payment.sol\":220:370  function mint(address sender,address receiver, uint amount) public {... */\n    tag_23:\n        /* \"payment.sol\":316:322  minter */\n      sload(0x00)\n      sub(shl(0xa0, 0x01), 0x01)\n        /* \"payment.sol\":306:322  sender == minter */\n      dup5\n      dup2\n      and\n        /* \"payment.sol\":316:322  minter */\n      swap2\n      and\n        /* \"payment.sol\":306:322  sender == minter */\n      eq\n        /* \"payment.sol\":298:323  require(sender == minter) */\n      tag_33\n      jumpi\n      0x00\n      dup1\n      revert\n    tag_33:\n      sub(shl(0xa0, 0x01), 0x01)\n        /* \"payment.sol\":334:352  balances[receiver] */\n      dup3\n      and\n      0x00\n      swap1\n      dup2\n      mstore\n        /* \"payment.sol\":334:342  balances */\n      0x01\n        /* \"payment.sol\":334:352  balances[receiver] */\n      0x20\n      mstore\n      0x40\n      dup2\n      keccak256\n        /* \"payment.sol\":334:362  balances[receiver] += amount */\n      dup1\n      sload\n        /* \"payment.sol\":356:362  amount */\n      dup4\n      swap3\n        /* \"payment.sol\":334:352  balances[receiver] */\n      swap1\n        /* \"payment.sol\":334:362  balances[receiver] += amount */\n      tag_34\n      swap1\n        /* \"payment.sol\":356:362  amount */\n      dup5\n      swap1\n        /* \"payment.sol\":334:362  balances[receiver] += amount */\n      tag_29\n      jump\t// in\n    tag_34:\n      swap1\n      swap2\n      sstore\n      pop\n      pop\n      pop\n      pop\n      pop\n        /* \"payment.sol\":220:370  function mint(address sender,address receiver, uint amount) public {... */\n      jump\t// out\n        /* \"#utility.yul\":222:395   */\n    tag_35:\n        /* \"#utility.yul\":290:310   */\n      dup1\n      calldataload\n      sub(shl(0xa0, 0x01), 0x01)\n        /* \"#utility.yul\":339:370   */\n      dup2\n      and\n        /* \"#utility.yul\":329:371   */\n      dup2\n      eq\n        /* \"#utility.yul\":319:389   */\n      tag_40\n      jumpi\n        /* \"#utility.yul\":385:386   */\n      0x00\n        /* \"#utility.yul\":382:383   */\n      dup1\n        /* \"#utility.yul\":375:387   */\n      revert\n        /* \"#utility.yul\":319:389   */\n    tag_40:\n        /* \"#utility.yul\":222:395   */\n      swap2\n      swap1\n      pop\n      jump\t// out\n        /* \"#utility.yul\":400:728   */\n    tag_13:\n        /* \"#utility.yul\":477:483   */\n      0x00\n        /* \"#utility.yul\":485:491   */\n      dup1\n        /* \"#utility.yul\":493:499   */\n      0x00\n        /* \"#utility.yul\":546:548   */\n      0x60\n        /* \"#utility.yul\":534:543   */\n      dup5\n        /* \"#utility.yul\":525:532   */\n      dup7\n        /* \"#utility.yul\":521:544   */\n      sub\n        /* \"#utility.yul\":517:549   */\n      slt\n        /* \"#utility.yul\":514:566   */\n      iszero\n      tag_42\n      jumpi\n        /* \"#utility.yul\":562:563   */\n      0x00\n        /* \"#utility.yul\":559:560   */\n      dup1\n        /* \"#utility.yul\":552:564   */\n      revert\n        /* \"#utility.yul\":514:566   */\n    tag_42:\n        /* \"#utility.yul\":585:614   */\n      tag_43\n        /* \"#utility.yul\":604:613   */\n      dup5\n        /* \"#utility.yul\":585:614   */\n      tag_35\n      jump\t// in\n    tag_43:\n        /* \"#utility.yul\":575:614   */\n      swap3\n      pop\n        /* \"#utility.yul\":633:671   */\n      tag_44\n        /* \"#utility.yul\":667:669   */\n      0x20\n        /* \"#utility.yul\":656:665   */\n      dup6\n        /* \"#utility.yul\":652:670   */\n      add\n        /* \"#utility.yul\":633:671   */\n      tag_35\n      jump\t// in\n    tag_44:\n        /* \"#utility.yul\":623:671   */\n      swap2\n      pop\n        /* \"#utility.yul\":718:720   */\n      0x40\n        /* \"#utility.yul\":707:716   */\n      dup5\n        /* \"#utility.yul\":703:721   */\n      add\n        /* \"#utility.yul\":690:722   */\n      calldataload\n        /* \"#utility.yul\":680:722   */\n      swap1\n      pop\n        /* \"#utility.yul\":400:728   */\n      swap3\n      pop\n      swap3\n      pop\n      swap3\n      jump\t// out\n        /* \"#utility.yul\":733:919   */\n    tag_17:\n        /* \"#utility.yul\":792:798   */\n      0x00\n        /* \"#utility.yul\":845:847   */\n      0x20\n        /* \"#utility.yul\":833:842   */\n      dup3\n        /* \"#utility.yul\":824:831   */\n      dup5\n        /* \"#utility.yul\":820:843   */\n      sub\n        /* \"#utility.yul\":816:848   */\n      slt\n        /* \"#utility.yul\":813:865   */\n      iszero\n      tag_46\n      jumpi\n        /* \"#utility.yul\":861:862   */\n      0x00\n        /* \"#utility.yul\":858:859   */\n      dup1\n        /* \"#utility.yul\":851:863   */\n      revert\n        /* \"#utility.yul\":813:865   */\n    tag_46:\n        /* \"#utility.yul\":884:913   */\n      tag_47\n        /* \"#utility.yul\":903:912   */\n      dup3\n        /* \"#utility.yul\":884:913   */\n      tag_35\n      jump\t// in\n    tag_47:\n        /* \"#utility.yul\":874:913   */\n      swap4\n        /* \"#utility.yul\":733:919   */\n      swap3\n      pop\n      pop\n      pop\n      jump\t// out\n        /* \"#utility.yul\":1106:1233   */\n    tag_36:\n        /* \"#utility.yul\":1167:1177   */\n      0x4e487b71\n        /* \"#utility.yul\":1162:1165   */\n      0xe0\n        /* \"#utility.yul\":1158:1178   */\n      shl\n        /* \"#utility.yul\":1155:1156   */\n      0x00\n        /* \"#utility.yul\":1148:1179   */\n      mstore\n        /* \"#utility.yul\":1198:1202   */\n      0x11\n        /* \"#utility.yul\":1195:1196   */\n      0x04\n        /* \"#utility.yul\":1188:1203   */\n      mstore\n        /* \"#utility.yul\":1222:1226   */\n      0x24\n        /* \"#utility.yul\":1219:1220   */\n      0x00\n        /* \"#utility.yul\":1212:1227   */\n      revert\n        /* \"#utility.yul\":1238:1366   */\n    tag_27:\n        /* \"#utility.yul\":1305:1314   */\n      dup2\n      dup2\n      sub\n        /* \"#utility.yul\":1326:1337   */\n      dup2\n      dup2\n      gt\n        /* \"#utility.yul\":1323:1360   */\n      iszero\n      tag_52\n      jumpi\n        /* \"#utility.yul\":1340:1358   */\n      tag_52\n      tag_36\n      jump\t// in\n    tag_52:\n        /* \"#utility.yul\":1238:1366   */\n      swap3\n      swap2\n      pop\n      pop\n      jump\t// out\n        /* \"#utility.yul\":1371:1496   */\n    tag_29:\n        /* \"#utility.yul\":1436:1445   */\n      dup1\n      dup3\n      add\n        /* \"#utility.yul\":1457:1467   */\n      dup1\n      dup3\n      gt\n        /* \"#utility.yul\":1454:1490   */\n      iszero\n      tag_52\n      jumpi\n        /* \"#utility.yul\":1470:1488   */\n      tag_52\n      tag_36\n      jump\t// in\n\n    auxdata: 0xa264697066735822122095cc1d2ac74810911bdb17a688b35ee18a2b82ea106a28bba260830edc7fc39d64736f6c634300081a0033\n}\n",
				"bytecode": {
					"linkReferences": {},
					"object": "60806040525f80546001600160a01b03191633179055348015601f575f80fd5b506102d08061002d5f395ff3fe608060405234801561000f575f80fd5b506004361061004a575f3560e01c8063075461721461004e5780630779afe61461007d57806327e235e314610092578063c6c3bbe6146100bf575b5f80fd5b5f54610060906001600160a01b031681565b6040516001600160a01b0390911681526020015b60405180910390f35b61009061008b366004610201565b6100d2565b005b6100b16100a036600461023a565b60016020525f908152604090205481565b604051908152602001610074565b6100906100cd366004610201565b61019d565b6001600160a01b0383165f908152600160205260409020548111156100f5575f80fd5b6001600160a01b0383165f908152600160205260408120805483929061011c90849061026e565b90915550506001600160a01b0382165f9081526001602052604081208054839290610148908490610287565b9091555050604080516001600160a01b038086168252841660208201529081018290527f3990db2d31862302a685e8086b5755072a6e2b5b780af1ee81ece35ee3cd33459060600160405180910390a1505050565b5f546001600160a01b038481169116146101b5575f80fd5b6001600160a01b0382165f90815260016020526040812080548392906101dc908490610287565b9091555050505050565b80356001600160a01b03811681146101fc575f80fd5b919050565b5f805f60608486031215610213575f80fd5b61021c846101e6565b925061022a602085016101e6565b9150604084013590509250925092565b5f6020828403121561024a575f80fd5b610253826101e6565b9392505050565b634e487b7160e01b5f52601160045260245ffd5b818103818111156102815761028161025a565b92915050565b808201808211156102815761028161025a56fea264697066735822122095cc1d2ac74810911bdb17a688b35ee18a2b82ea106a28bba260830edc7fc39d64736f6c634300081a0033",
					"opcodes": "PUSH1 0x80 PUSH1 0x40 MSTORE PUSH0 DUP1 SLOAD PUSH1 0x1 PUSH1 0x1 PUSH1 0xA0 SHL SUB NOT AND CALLER OR SWAP1 SSTORE CALLVALUE DUP1 ISZERO PUSH1 0x1F JUMPI PUSH0 DUP1 REVERT JUMPDEST POP PUSH2 0x2D0 DUP1 PUSH2 0x2D PUSH0 CODECOPY PUSH0 RETURN INVALID PUSH1 0x80 PUSH1 0x40 MSTORE CALLVALUE DUP1 ISZERO PUSH2 0xF JUMPI PUSH0 DUP1 REVERT JUMPDEST POP PUSH1 0x4 CALLDATASIZE LT PUSH2 0x4A JUMPI PUSH0 CALLDATALOAD PUSH1 0xE0 SHR DUP1 PUSH4 0x7546172 EQ PUSH2 0x4E JUMPI DUP1 PUSH4 0x779AFE6 EQ PUSH2 0x7D JUMPI DUP1 PUSH4 0x27E235E3 EQ PUSH2 0x92 JUMPI DUP1 PUSH4 0xC6C3BBE6 EQ PUSH2 0xBF JUMPI JUMPDEST PUSH0 DUP1 REVERT JUMPDEST PUSH0 SLOAD PUSH2 0x60 SWAP1 PUSH1 0x1 PUSH1 0x1 PUSH1 0xA0 SHL SUB AND DUP2 JUMP JUMPDEST PUSH1 0x40 MLOAD PUSH1 0x1 PUSH1 0x1 PUSH1 0xA0 SHL SUB SWAP1 SWAP2 AND DUP2 MSTORE PUSH1 0x20 ADD JUMPDEST PUSH1 0x40 MLOAD DUP1 SWAP2 SUB SWAP1 RETURN JUMPDEST PUSH2 0x90 PUSH2 0x8B CALLDATASIZE PUSH1 0x4 PUSH2 0x201 JUMP JUMPDEST PUSH2 0xD2 JUMP JUMPDEST STOP JUMPDEST PUSH2 0xB1 PUSH2 0xA0 CALLDATASIZE PUSH1 0x4 PUSH2 0x23A JUMP JUMPDEST PUSH1 0x1 PUSH1 0x20 MSTORE PUSH0 SWAP1 DUP2 MSTORE PUSH1 0x40 SWAP1 KECCAK256 SLOAD DUP2 JUMP JUMPDEST PUSH1 0x40 MLOAD SWAP1 DUP2 MSTORE PUSH1 0x20 ADD PUSH2 0x74 JUMP JUMPDEST PUSH2 0x90 PUSH2 0xCD CALLDATASIZE PUSH1 0x4 PUSH2 0x201 JUMP JUMPDEST PUSH2 0x19D JUMP JUMPDEST PUSH1 0x1 PUSH1 0x1 PUSH1 0xA0 SHL SUB DUP4 AND PUSH0 SWAP1 DUP2 MSTORE PUSH1 0x1 PUSH1 0x20 MSTORE PUSH1 0x40 SWAP1 KECCAK256 SLOAD DUP2 GT ISZERO PUSH2 0xF5 JUMPI PUSH0 DUP1 REVERT JUMPDEST PUSH1 0x1 PUSH1 0x1 PUSH1 0xA0 SHL SUB DUP4 AND PUSH0 SWAP1 DUP2 MSTORE PUSH1 0x1 PUSH1 0x20 MSTORE PUSH1 0x40 DUP2 KECCAK256 DUP1 SLOAD DUP4 SWAP3 SWAP1 PUSH2 0x11C SWAP1 DUP5 SWAP1 PUSH2 0x26E JUMP JUMPDEST SWAP1 SWAP2 SSTORE POP POP PUSH1 0x1 PUSH1 0x1 PUSH1 0xA0 SHL SUB DUP3 AND PUSH0 SWAP1 DUP2 MSTORE PUSH1 0x1 PUSH1 0x20 MSTORE PUSH1 0x40 DUP2 KECCAK256 DUP1 SLOAD DUP4 SWAP3 SWAP1 PUSH2 0x148 SWAP1 DUP5 SWAP1 PUSH2 0x287 JUMP JUMPDEST SWAP1 SWAP2 SSTORE POP POP PUSH1 0x40 DUP1 MLOAD PUSH1 0x1 PUSH1 0x1 PUSH1 0xA0 SHL SUB DUP1 DUP7 AND DUP3 MSTORE DUP5 AND PUSH1 0x20 DUP3 ADD MSTORE SWAP1 DUP2 ADD DUP3 SWAP1 MSTORE PUSH32 0x3990DB2D31862302A685E8086B5755072A6E2B5B780AF1EE81ECE35EE3CD3345 SWAP1 PUSH1 0x60 ADD PUSH1 0x40 MLOAD DUP1 SWAP2 SUB SWAP1 LOG1 POP POP POP JUMP JUMPDEST PUSH0 SLOAD PUSH1 0x1 PUSH1 0x1 PUSH1 0xA0 SHL SUB DUP5 DUP2 AND SWAP2 AND EQ PUSH2 0x1B5 JUMPI PUSH0 DUP1 REVERT JUMPDEST PUSH1 0x1 PUSH1 0x1 PUSH1 0xA0 SHL SUB DUP3 AND PUSH0 SWAP1 DUP2 MSTORE PUSH1 0x1 PUSH1 0x20 MSTORE PUSH1 0x40 DUP2 KECCAK256 DUP1 SLOAD DUP4 SWAP3 SWAP1 PUSH2 0x1DC SWAP1 DUP5 SWAP1 PUSH2 0x287 JUMP JUMPDEST SWAP1 SWAP2 SSTORE POP POP POP POP POP JUMP JUMPDEST DUP1 CALLDATALOAD PUSH1 0x1 PUSH1 0x1 PUSH1 0xA0 SHL SUB DUP2 AND DUP2 EQ PUSH2 0x1FC JUMPI PUSH0 DUP1 REVERT JUMPDEST SWAP2 SWAP1 POP JUMP JUMPDEST PUSH0 DUP1 PUSH0 PUSH1 0x60 DUP5 DUP7 SUB SLT ISZERO PUSH2 0x213 JUMPI PUSH0 DUP1 REVERT JUMPDEST PUSH2 0x21C DUP5 PUSH2 0x1E6 JUMP JUMPDEST SWAP3 POP PUSH2 0x22A PUSH1 0x20 DUP6 ADD PUSH2 0x1E6 JUMP JUMPDEST SWAP2 POP PUSH1 0x40 DUP5 ADD CALLDATALOAD SWAP1 POP SWAP3 POP SWAP3 POP SWAP3 JUMP JUMPDEST PUSH0 PUSH1 0x20 DUP3 DUP5 SUB SLT ISZERO PUSH2 0x24A JUMPI PUSH0 DUP1 REVERT JUMPDEST PUSH2 0x253 DUP3 PUSH2 0x1E6 JUMP JUMPDEST SWAP4 SWAP3 POP POP POP JUMP JUMPDEST PUSH4 0x4E487B71 PUSH1 0xE0 SHL PUSH0 MSTORE PUSH1 0x11 PUSH1 0x4 MSTORE PUSH1 0x24 PUSH0 REVERT JUMPDEST DUP2 DUP2 SUB DUP2 DUP2 GT ISZERO PUSH2 0x281 JUMPI PUSH2 0x281 PUSH2 0x25A JUMP JUMPDEST SWAP3 SWAP2 POP POP JUMP JUMPDEST DUP1 DUP3 ADD DUP1 DUP3 GT ISZERO PUSH2 0x281 JUMPI PUSH2 0x281 PUSH2 0x25A JUMP INVALID LOG2 PUSH5 0x6970667358 0x22 SLT KECCAK256 SWAP6 0xCC SAR 0x2A 0xC7 BASEFEE LT SWAP2 SHL 0xDB OR 0xA6 DUP9 0xB3 MCOPY 0xE1 DUP11 0x2B DUP3 0xEA LT PUSH11 0x28BBA260830EDC7FC39D64 PUSH20 0x6F6C634300081A00330000000000000000000000 "
				},
				"gasEstimates": {
					"creation": {
						"codeDepositCost": "144000",
						"executionCost": "24422",
						"totalCost": "168422"
					},
					"external": {
						"balances(address)": "2538",
						"mint(address,address,uint256)": "infinite",
						"minter()": "2302",
						"send(address,address,uint256)": "infinite"
					}
				},
				"methodIdentifiers": {
					"balances(address)": "27e235e3",
					"mint(address,address,uint256)": "c6c3bbe6",
					"minter()": "07546172",
					"send(address,address,uint256)": "0779afe6"
				}
			},
			"storageLayout": {
				"storage": [
					{
						"astId": 5,
						"contract": "payment.sol:Coin",
						"label": "minter",
						"offset": 0,
						"slot": "0",
						"type": "t_address"
					},
					{
						"astId": 9,
						"contract": "payment.sol:Coin",
						"label": "balances",
						"offset": 0,
						"slot": "1",
						"type": "t_mapping(t_address,t_uint256)"
					}
				],
				"types": {
					"t_address": {
						"encoding": "inplace",
						"label": "address",
						"numberOfBytes": "20"
					},
					"t_mapping(t_address,t_uint256)": {
						"encoding": "mapping",
						"key": "t_address",
						"label": "mapping(address => uint256)",
						"numberOfBytes": "32",
						"value": "t_uint256"
					},
					"t_uint256": {
						"encoding": "inplace",
						"label": "uint256",
						"numberOfBytes": "32"
					}
				}
			},
			"userdoc": {
				"kind": "user",
				"methods": {},
				"version": 1
			}
		}
	}
}